:020000040000FA
:04000000DCEF0CF035
:10060000003F065B4F666D7D077F6F777C395E79B3
:1006100071554C445253584142597320543A004842
:100620003A00563A00001ABE21EF03F01A5007E1D3
:10063000080E195CD8B01FEF03F021EF03F04BEF69
:1006400003F01B501C10D8B428EF03F02AEF03F07E
:100650003AEF03F019C01DF0010E1E6E1D2A33EF94
:1006600003F0D8901E361D2E31EF03F01E5092126B
:1006700039EF04F019C01DF0010E1E6E1D2A43EF64
:1006800003F0D8901E361D2E41EF03F01E50FF0AD6
:10069000921639EF04F01ABE59EF03F01A5007E131
:1006A000100E195CD8B057EF03F059EF03F087EF45
:1006B00003F01B501C10D8B460EF03F062EF03F09E
:1006C00074EF03F019C01DF0F80E1D26010E1E6E0A
:1006D0001D2A6DEF03F0D8901E361D2E6BEF03F030
:1006E0001E50931239EF04F019C01DF0F80E1D26AC
:1006F000010E1E6E1D2A7FEF03F0D8901E361D2EB0
:100700007DEF03F01E50FF0A931639EF04F01ABE76
:1007100095EF03F01A5007E1180E195CD8B093EF6B
:1007200003F095EF03F0C3EF03F01B501C10D8B497
:100730009CEF03F09EEF03F0B0EF03F019C01DF043
:10074000F00E1D26010E1E6E1D2AA9EF03F0D89093
:100750001E361D2EA7EF03F01E50941239EF04F041
:1007600019C01DF0F00E1D26010E1E6E1D2ABBEFD6
:1007700003F0D8901E361D2EB9EF03F01E50FF0A6D
:10078000941639EF04F01ABED1EF03F01A5007E1C6
:10079000200E195CD8B0CFEF03F0D1EF03F0FFEFDC
:1007A00003F01B501C10D8B4D8EF03F0DAEF03F0BD
:1007B000ECEF03F019C01DF0E80E1D26010E1E6EB1
:1007C0001D2AE5EF03F0D8901E361D2EE3EF03F04F
:1007D0001E50951239EF04F019C01DF0E80E1D26C9
:1007E000010E1E6E1D2AF7EF03F0D8901E361D2E47
:1007F000F5EF03F01E50FF0A951639EF04F01ABE0C
:100800000DEF04F01A5007E1280E195CD8B00BEF79
:1008100004F00DEF04F039EF04F01B501C10D8B4B5
:1008200014EF04F016EF04F028EF04F019C01DF0E7
:10083000E00E1D26010E1E6E1D2A21EF04F0D89039
:100840001E361D2E1FEF04F01E50961239EF04F0D5
:1008500019C01DF0E00E1D26010E1E6E1D2A33EF7D
:1008600004F0D8901E361D2E31EF04F01E50FF0A02
:10087000961612001ABE48EF04F01A5007E1080E4F
:10088000195CD8B046EF04F048EF04F072EF04F0C2
:100890001B501C10D8B44FEF04F051EF04F061EF7F
:1008A00004F019C01DF0010E1E6E1D2A5AEF04F04F
:1008B000D8901E361D2E58EF04F01E50801260EFA7
:1008C00005F019C01DF0010E1E6E1D2A6AEF04F01E
:1008D000D8901E361D2E68EF04F01E50FF0A8016B9
:1008E00060EF05F01ABE80EF04F01A5007E1100E19
:1008F000195CD8B07EEF04F080EF04F0AEEF04F0A6
:10090000F80E1926FF0E1A221B501C10D8B48BEFBC
:1009100004F08DEF04F09DEF04F019C01DF0010EFE
:100920001E6E1D2A96EF04F0D8901E361D2E94EFF1
:1009300004F01E50811260EF05F019C01DF0010E89
:100940001E6E1D2AA6EF04F0D8901E361D2EA4EFB1
:1009500004F01E50FF0A811660EF05F01ABEBCEFCE
:1009600004F01A5007E1180E195CD8B0BAEF04F081
:10097000BCEF04F0EAEF04F0F00E1926FF0E1A2285
:100980001B501C10D8B4C7EF04F0C9EF04F0D9EF26
:1009900004F019C01DF0010E1E6E1D2AD2EF04F0E6
:1009A000D8901E361D2ED0EF04F01E50821260EF3C
:1009B00005F019C01DF0010E1E6E1D2AE2EF04F0B5
:1009C000D8901E361D2EE0EF04F01E50FF0A82164E
:1009D00060EF05F01ABEF8EF04F01A5007E1200EA0
:1009E000195CD8B0F6EF04F0F8EF04F026EF05F04C
:1009F000E80E1926FF0E1A221B501C10D8B403EF64
:100A000005F005EF05F015EF05F019C01DF0010E1A
:100A10001E6E1D2A0EEF05F0D8901E361D2E0CEF0F
:100A200005F01E50831260EF05F019C01DF0010E95
:100A30001E6E1D2A1EEF05F0D8901E361D2E1CEFCF
:100A400005F01E50FF0A831660EF05F01ABE34EF62
:100A500005F01A5007E1280E195CD8B032EF05F006
:100A600034EF05F060EF05F0E00E1926FF0E1A22B4
:100A70001B501C10D8B43FEF05F041EF05F051EFCB
:100A800005F019C01DF0010E1E6E1D2A4AEF05F07B
:100A9000D8901E361D2E48EF05F01E50841260EFD0
:100AA00005F019C01DF0010E1E6E1D2A5AEF05F04B
:100AB000D8901E361D2E58EF05F01E50FF0A8416E2
:100AC0001200E7EC0CF00D50191809E10E501A183D
:100AD000D8B46DEF05F06FEF05F07AEF06F0E7ECB4
:100AE0000CF019C00DF01AC00EF038EF06F01750D8
:100AF000D8A47DEF05F07FEF05F088EF05F0000E3C
:100B0000086E640E076E010E176E83689DEF05F088
:100B1000030E1718D8B48FEF05F091EF05F09DEF95
:100B200005F01650D8A497EF05F099EF05F09DEF6A
:100B300005F0030E176E85EF05F007500810D8B4C6
:100B4000A4EF05F0A6EF05F0ACEF05F0075009247F
:100B5000096E08500A200A6E010E0B240B6E000E5F
:100B60000C200C6E5AEF06F0DC0E095C050E0A58DC
:100B7000D8B0BDEF05F0BFEF05F0D0EF05F0910E56
:100B8000075C010E0858D8B0C8EF05F0CAEF05F0B1
:100B9000D0EF05F0320E0724076E000E0820086E15
:100BA00007500810D8B4D7EF05F0D9EF05F0ACEF37
:100BB00005F0A6EF05F0085009E1320E075CD8A059
:100BC000E4EF05F0E6EF05F0EEEF05F0CE0E0724BA
:100BD000076EFF0E0820086EF2EF05F0000E086E9B
:100BE000000E076E07500810D8B4F9EF05F0FBEFC0
:100BF00005F0ACEF05F0A6EF05F0085009E1030E93
:100C0000075CD8A006EF06F008EF06F010EF06F03C
:100C1000FD0E0724076EFF0E0820086E14EF06F085
:100C2000000E086E000E076E07500810D8B41BEFB8
:100C300006F01DEF06F0ACEF05F0A6EF05F0010E93
:100C4000166E010E0B240B6E000E0C200C6E07505E
:100C50000810D8B42EEF06F030EF06F05AEF06F089
:100C600007500924096E08500A200A6E5AEF06F050
:100C700092EC0AF01E6E1F6A1F50000AD8B443EFB0
:100C800006F05AEF06F01E50440AD8B4DBEF05F028
:100C9000080AD8B4B4EF05F01E0AD8B4FDEF05F089
:100CA000010AD8B41FEF06F0060AD8B477EF05F0B2
:100CB0005AEF06F0020E1718D8A461EF06F063EFA2
:100CC00006F07AEF06F0F60E0924096EFF0E0A20F0
:100CD0000A6E085007E1320E075CD8B072EF06F0DA
:100CE00074EF06F07AEF06F0D80E0924096EFF0EB5
:100CF0000A200A6E1200000E306E000E2F6E000EDB
:100D0000956E000E836E31EC0CF050EC0CF0E0ECC4
:100D100009F093EC0BF0ECEC0CF0010ECDEC0CF0C8
:100D2000E2EF06F0085007E12D0E075CD8B09BEF0C
:100D300006F09DEF06F09FEF06F0010E166E0C50C8
:100D400009E1030E0B5CD8A0A8EF06F0AAEF06F0AD
:100D500007EF07F0020E176E07EF07F00A5007E1E2
:100D60001E0E095CD8B0B7EF06F0B9EF06F007EF3A
:100D700007F0020E166E07EF07F00C5009E1060EA1
:100D80000B5CD8A0C6EF06F0C8EF06F0B9EF06F08E
:100D9000085007E1060E075CD8B0D1EF06F0D3EF9C
:100DA00006F0B9EF06F0E90E095C030E0A58D8B058
:100DB000DCEF06F0DEEF06F0B9EF06F0040E176E7A
:100DC00007EF07F017502D6E2E6A2E50000AD8B488
:100DD000ECEF06F007EF07F02D50010AD8B492EFC0
:100DE00006F0030AD8B4AEEF06F0010AD8B4BDEF9E
:100DF00006F007EF07F0020E836E20EF07F0030EF8
:100E0000836E20EF07F0010E836E20EF07F016507F
:100E10002D6E2E6A2E50000AD8B411EF07F020EF85
:100E200007F02D50000AD8B4FBEF06F0010AD8B441
:100E3000FFEF06F0030AD8B403EF07F020EF07F046
:100E40001650D8A426EF07F028EF07F02CEF07F094
:100E500061EC05F0E3EC08F0800ECDEC0CF0220E16
:100E6000276E060E286EBEEC0BF007C027F008C0F8
:100E700028F0CEEC0AF01B0E276E060E286EBEEC94
:100E80000BF00BC027F00CC028F0CEEC0AF0C00E1F
:100E9000CDEC0CF01F0E276E060E286EBEEC0BF08C
:100EA00009C027F00AC028F0CEEC0AF017C018F0ED
:100EB000000E196E2F5067EC0BF0010E196E2F50BB
:100EC00067EC0BF0020E196E2F5067EC0BF0030E5F
:100ED000196E185067EC0BF078EC07F0000E1A6EE4
:100EE000640E196E08EC0BF0E2EF06F000EF00F074
:100EF000000E1A6E180E196E000E1C6E000E1B6E80
:100F00003AEC04F0000E1A6E190E196E000E1C6EEB
:100F1000000E1B6E3AEC04F0000E1A6E1A0E196EDB
:100F2000000E1C6E000E1B6E3AEC04F0000E1A6EE2
:100F30001B0E196E000E1C6E000E1B6E3AEC04F0B8
:100F4000000E206E000E1F6EE9EC0BF010EF08F0A3
:100F5000010E1224F66EF76A060EF7220800F5500D
:100F60001F6E206AE9EC0BF0000E1A6E180E196E57
:100F7000000E1C6E010E1B6E3AEC04F0010E136E97
:100F80002DEF08F0010E1124F66EF76A060EF72217
:100F90000800F5501F6E206AE9EC0BF0000E1A6E87
:100FA000190E196E000E1C6E010E1B6E3AEC04F049
:100FB000020E136E2DEF08F0010E1024F66EF76A84
:100FC000060EF7220800F5501F6E206AE9EC0BF0C0
:100FD000000E1A6E1A0E196E000E1C6E010E1B6E9C
:100FE0003AEC04F0030E136E2DEF08F0010E0F24FF
:100FF000F66EF76A060EF7220800F5501F6E206A9B
:10100000E9EC0BF0000E1A6E1B0E196E000E1C6E32
:10101000010E1B6E3AEC04F0000E136E2DEF08F07B
:101020001350226E236A2350000AD8B41AEF08F036
:101030000CEF08F02250000AD8B4A8EF07F0010A1C
:10104000D8B4C2EF07F0030AD8B4DCEF07F0010A06
:10105000D8B4F6EF07F00CEF08F012001ABE3CEF20
:1010600008F01A5007E1080E195CD8B03AEF08F002
:101070003CEF08F050EF08F019C01BF0010E1C6E99
:101080001B2A45EF08F0D8901C361B2E43EF08F0C2
:101090001C5080141D6E1D50196E1A6AE2EF08F084
:1010A0001ABE5EEF08F01A5007E1100E195CD8B0B6
:1010B0005CEF08F05EEF08F074EF08F019C01BF069
:1010C000F80E1B26010E1C6E1B2A69EF08F0D89043
:1010D0001C361B2E67EF08F01C5081141D6E1D502E
:1010E000196E1A6AE2EF08F01ABE82EF08F01A5081
:1010F00007E1180E195CD8B080EF08F082EF08F015
:1011000098EF08F019C01BF0F00E1B26010E1C6EA4
:101110001B2A8DEF08F0D8901C361B2E8BEF08F0A1
:101120001C5082141D6E1D50196E1A6AE2EF08F0F1
:101130001ABEA6EF08F01A5007E1200E195CD8B0CD
:10114000A4EF08F0A6EF08F0BCEF08F019C01BF000
:10115000E80E1B26010E1C6E1B2AB1EF08F0D8907A
:101160001C361B2EAFEF08F01C5083141D6E1D5053
:10117000196E1A6AE2EF08F01ABECAEF08F01A50A8
:1011800007E1280E195CD8B0C8EF08F0CAEF08F0E4
:10119000E0EF08F019C01BF0E00E1B26010E1C6EDC
:1011A0001B2AD5EF08F0D8901C361B2ED3EF08F081
:1011B0001C5084141D6E1D50196E1A6AE2EF08F05F
:1011C00019681A681200000E046E000E036E000EFD
:1011D000266E000E256E26BEF7EF08F0265009E1B8
:1011E000050E255CD8A0F7EF08F0F9EF08F0FBEF4B
:1011F00008F05CEF09F025C022F0030E2226010E54
:10120000236E000E246E222A09EF09F0D8902336AF
:101210002436222E06EF09F023C01FF024C020F050
:10122000E9EC0BF0000E1A6E0A0E196E2EEC08F0A7
:1012300019501A10D8B41FEF09F021EF09F034EF5C
:1012400009F025C022F0010E236E000E246E222A22
:101250002DEF09F0D89023362436222E2AEF09F0FC
:101260002350031224500412000E1A6E090E196E38
:101270002EEC08F019501A10D8B441EF09F043EFE2
:1012800009F058EF09F025C022F0050E2226010EC4
:10129000236E000E246E222A51EF09F0D8902336D7
:1012A0002436222E4EEF09F023500312245004124C
:1012B000254A262AEBEF08F00350011807E10450F5
:1012C0000218D8A466EF09F068EF09F06BEF09F097
:1012D000140671EF09F0010E146E03C001F004C092
:1012E00002F01450D8A477EF09F079EF09F07DEF00
:1012F00009F001C005F002C006F01200000E1E6EDB
:101300001CBE87EF09F085EF09F08DEF09F01B6C2B
:101310001C1ED8B01C2A010E1E6E1ABE94EF09F0D6
:1013200092EF09F09AEF09F0196C1A1ED8B01A2A38
:10133000010E1E1A000E206E000E1F6E1B501C1098
:10134000D8B4A5EF09F0A7EF09F0CFEF09F0010E2F
:101350001D6EAFEF09F0D8901B361C361D2A1CAE4F
:10136000B4EF09F0B6EF09F0ABEF09F0D8901F36F3
:1013700020361B50195C1C501A58D8A0C2EF09F037
:10138000C4EF09F0C9EF09F01B50195E1C501A5A3E
:101390001F80D8901C321B321D2EB6EF09F01E5054
:1013A000D8B4D5EF09F0D7EF09F0DBEF09F01F6CE7
:1013B000201ED8B0202A1FC019F020C01AF0120039
:1013C000000E1A6E1C0E196E000E1C6E000E1B6EA7
:1013D00013EC03F0000E1A6E1D0E196E000E1C6E3B
:1013E000000E1B6E13EC03F031EC0CF0000E1A6EC5
:1013F0000F0E196E69EC0CF0000E236E000E226EBB
:10140000030EABEC0CF0000E1A6E050E196E69ECB3
:101410000CF0000E236E000E226E030EABEC0CF0EF
:10142000000E1A6EA00E196EF0EC0CF0000E236E7A
:10143000000E226E030EABEC0CF0000E1A6EA00E26
:10144000196EF0EC0CF0000E236E000E226E020EF0
:10145000ABEC0CF0000E1A6E0A0E196E69EC0CF073
:10146000280ECDEC0CF00C0ECDEC0CF0010ECDECFA
:101470000CF01200000E266E22BE43EF0AF041EF80
:101480000AF049EF0AF0216C221ED8B0222A010E80
:10149000266E24BE50EF0AF04EEF0AF054EF0AF029
:1014A000236C241ED8B0242A23502410D8B45BEF18
:1014B0000AF05DEF0AF081EF0AF0010E256E65EF8C
:1014C0000AF0D89023362436252A24AE6AEF0AF093
:1014D0006CEF0AF061EF0AF02350215C245022588F
:1014E000D8A075EF0AF077EF0AF07BEF0AF02350EF
:1014F000215E2450225AD89024322332252E6CEFBC
:101500000AF02650D8B487EF0AF089EF0AF08DEF81
:101510000AF0216C221ED8B0222A21C021F022C05C
:1015200022F01200000E1D6E000E1C6E1CC019F081
:10153000010E1A6E000E1B6E192AA2EF0AF0D89047
:101540001A361B36192E9FEF0AF005501A16065050
:101550001B161A501B10D8B4B0EF0AF0B2EF0AF005
:10156000BCEF0AF0110E1C24F66E060E1D20F76E5D
:101570000800F550CDEF0AF01C4A1D2A1DBECAEF27
:101580000AF01D5009E10A0E1C5CD8A0CAEF0AF04F
:10159000CCEF0AF096EF0AF0000E1200270E2A6E2A
:1015A000100E296EFAEF0AF029C01BF02AC01CF0B9
:1015B00027C019F028C01AF07EEC09F019C021F0FC
:1015C0001AC022F0000E246E0A0E236E3AEC0AF0C6
:1015D0002150300FBEEC0CF029C019F02AC01AF0CF
:1015E000000E1C6E0A0E1B6E7EEC09F019C029F06D
:1015F0001AC02AF02ABE07EF0BF02A5006E1290490
:10160000D8B005EF0BF007EF0BF0D4EF0AF01200A3
:10161000000E1C6E000E1B6E2EEF0BF0000E1D6EEA
:10162000280E1D6416EF0BF018EF0BF01AEF0BF0FD
:101630002CEF0BF0000E1E6E020E1E6422EF0BF05C
:1016400024EF0BF026EF0BF029EF0BF01E2A1CEF16
:101650000BF01D2A10EF0BF01B4A1C2A19501B5CC3
:101660001A501C58D8A037EF0BF039EF0BF00EEFE3
:101670000BF01200256E25C024F0243A0F0E24161C
:1016800024501F6E206AE9EC0BF0000E1A6E1D0E3E
:10169000196E22C01BF023C01CF03AEC04F010ECD1
:1016A0000CF025C024F00F0E241624501F6E206A63
:1016B000E9EC0BF0000E1A6E1D0E196E22C01BF025
:1016C00023C01CF03AEC04F010EC0CF012001A6E7F
:1016D0001950D8A46EEF0BF070EF0BF072EF0BF017
:1016E0001AC012F01904D8A478EF0BF07AEF0BF0BF
:1016F0007CEF0BF01AC011F0020E1918D8A483EF7A
:101700000BF085EF0BF087EF0BF01AC010F0030E13
:101710001918D8A48EEF0BF090EF0BF092EF0BF0AE
:101720001AC00FF01200000E1A6E180E196E000E7D
:101730001C6E000E1B6E13EC03F0000E1A6E190ED9
:10174000196E000E1C6E000E1B6E13EC03F0000EE3
:101750001A6E1A0E196E000E1C6E000E1B6E13EC24
:1017600003F0000E1A6E1B0E196E000E1C6E000E9A
:101770001B6E13EC03F031EC0CF01200000E2C6E1B
:10178000000E2B6ED4EF0BF02B502724296E2C501B
:1017900028202A6E29C0F6FF2AC0F7FF0800F5505E
:1017A000BEEC0CF02B4A2C2A2B502724296E2C50EF
:1017B00028202A6E29C0F6FF2AC0F7FF0800F5503E
:1017C0000009D8A4E6EF0BF0E8EF0BF0C4EF0BF044
:1017D0001200000E1A6E080E196E000E1C6E000E1E
:1017E0001B6E3AEC04F0000E216E000E1A6E1E0EF7
:1017F000196E800E1F141B6E1C6A3AEC04F096ECF6
:101800000CF0D8901F362036212A070E21640BEFEA
:101810000CF00DEF0CF0F5EF0BF081EC0CF012007A
:10182000000E1A6E1C0E196E000E1C6E010E1B6E41
:101830003AEC04F0000E1A6E050E196EF0EC0CF086
:10184000000E1A6E1C0E196E000E1C6E000E1B6E22
:101850003AEC04F0000E1A6E050E196EF0EC0CF066
:101860001200000E1A6E1F0E196E000E1C6E000E76
:101870001B6E13EC03F0000E1A6E080E196E000EAC
:101880001C6E000E1B6E13EC03F0000E1A6E1E0E83
:10189000196E000E1C6E000E1B6E13EC03F012008E
:1018A00031EC0CF0000E1A6E0A0E196E000E1C6E52
:1018B000010E1B6E13EC03F0000E1A6E090E196E6A
:1018C000000E1C6E010E1B6E13EC03F00C0EC16EAD
:1018D0001200000E1D6E000E1C6E71EF0CF01C4A03
:1018E0001D2A19501C5C1D50800A1B6E1A50800A5C
:1018F0001B58D8A07EEF0CF080EF0CF06FEF0CF0CF
:101900001200000E1A6E1F0E196E000E1C6E010ED4
:101910001B6E3AEC04F0000E1A6E1F0E196E000ECC
:101920001C6E000E1B6E3AEC04F01200000E1A6ED4
:10193000080E196E000E1C6E010E1B6E3AEC04F0C0
:10194000000E1A6E080E196E000E1C6E000E1B6E35
:101950003AEC04F01200246E24C01FF0206AE9EC77
:101960000BF0000E1A6E1D0E196E22C01BF023C064
:101970001CF03AEC04F010EC0CF01200266E000E95
:10198000236E010E226E26503AEC0BF0000E1A6EFA
:10199000500E196EF0EC0CF01200266E000E236E45
:1019A000000E226E26503AEC0BF0000E1A6E020E5C
:1019B000196E69EC0CF0120000EE01F0180EEE6AE0
:1019C000E806FDE1000EF86E00017BEF06F005C0B1
:1019D00019F006C01AF01200080ED56ED58E12004E
:0219E0001200F3
:020000040020DA
:08000000FFFFFFFFFFFFFFFF00
:020000040030CA
:0E000000FF027100FF8380FF0FC00FE00F4072
:00000001FF
